:100000000C9434000C9451000C9451000C94510049
:100010000C9451000C9451000C9451000C9451001C
:100020000C9451000C9451000C9451000C9451000C
:100030000C9451000C9451000C9451000C945100FC
:100040000C9451000C9451000C9451000C945100EC
:100050000C9451000C9451000C9451000C945100DC
:100060000C9451000C94510011241FBECFEFD8E026
:10007000DEBFCDBF11E0A0E0B1E0EEE3F3E002C0EF
:1000800005900D92AA30B107D9F721E0AAE0B1E0BE
:1000900001C01D92AA33B207E1F70E94CB000C9475
:1000A0009D010C9400000F931F93CF93DF93009753
:1000B00011F481E090E020910801309109012C5F5A
:1000C0003F4FA9014E5051404C3251052CF4309312
:1000D00009012093080106C02EE031E030930901A8
:1000E00020930801C0910801D09109019B838A8364
:1000F00068817981E0910401F091050124E031E00B
:10010000D90100E010E040815181C417D50711F4F6
:1001100071836083428153814817590748F48D9158
:100120009C91119799838883CD93DC93802F912F95
:10013000D9012D913C91B1E0EA30FB0711F1A0818A
:10014000B1814D915C911197C417D50719F411969F
:100150007C936E9312964D915C91139748175907B3
:1001600040F48081918199838883D183C083802FDB
:10017000912FE1E0AA30BE0721F0ED91FC9111979B
:10018000C2CFD90112968D919C911397DF91CF9197
:100190001F910F910895CF93DF93CAE0D0E00E94A2
:1001A0002A010E9453002197D1F70E942A010E9440
:1001B000530080E090E0DF91CF9108958F929F925D
:1001C000AF92BF92CF92DF92EF92FF92CF93DF93E5
:1001D000EC01688179818A819B81611571058105B6
:1001E000910521F464E279ED8BE597E02DE133EFA1
:1001F00041E050E00E943A0149015A019B01AC01E3
:10020000A7EAB1E40E9459016B017C01ACEEB4EFA6
:10021000A50194010E946701DC01CB018C0D9D1D9D
:10022000AE1DBF1DB7FF03C00197A109B048888369
:100230009983AA83BB839F77DF91CF91FF90EF9043
:10024000DF90CF90BF90AF909F908F9008950E94C5
:10025000DE00089580E091E00E94DE000895A0E0B5
:10026000B0E08093000190930101A0930201B0934C
:1002700003010895052E97FB1EF400940E9451017E
:1002800057FD07D00E946C0107FC03D04EF40C947C
:10029000510150954095309521953F4F4F4F5F4FFD
:1002A000089590958095709561957F4F8F4F9F4FE2
:1002B00008950E948E01A59F900DB49F900DA49F5C
:1002C000800D911D11240895B7FF0C9459010E94CF
:1002D0005901821B930B0895A1E21A2EAA1BBB1B86
:1002E000FD010DC0AA1FBB1FEE1FFF1FA217B30702
:1002F000E407F50720F0A21BB30BE40BF50B661F18
:10030000771F881F991F1A9469F7609570958095DB
:1003100090959B01AC01BD01CF010895A29FB00152
:10032000B39FC001A39F700D811D1124911DB29F29
:0E033000700D811D1124911D0895F894FFCFCA
:0A033E00010000000A0100000E019A
:00000001FF
